:100000000C94FD000C9425010C9425010C94250101
:100010000C9425010C9425010C9425010C942501C8
:100020000C9425010C9425010C9425010C942501B8
:100030000C9425010C9425010C9425010C942501A8
:100040000C94D3020C9425010C9443030C941D03CF
:100050000C9425010C9425010C9425010C94250188
:100060000C9425010C942501180613060E060A06A9
:100070000206FE05F705F205EB05E405DB05D505EF
:10008000CC05C505BC05B405A905A10597058C05DA
:10009000820577056D056105540549053C052E056A
:1000A000220514050505F704E804D904C904BB04B6
:1000B000A9049A04880478046604550444043104AD
:1000C0001F040C04FA03E803D503C203AF039C0327
:1000D00089037703630351033E032B0318030603CD
:1000E000F402E102D002BE02AC029C028B027A0250
:1000F0006A025A024A023A022C021D020F0201024F
:10010000F301E601D901CC01C001B401A9019E01AE
:10011000930189017F0175016C0163015A0152014C
:10012000490142013A0133012C0126011F01190145
:1001300013010E0108010301FE00F900F500F000B3
:10014000EC00E800E500E100DD00DA00D700D400B3
:10015000D100CE00CC00C900C700C400C200C0005E
:10016000BE00BC00BA00B900B700B500B400B200D0
:10017000B100B000AF00AD00AC00AB00AA00A90018
:10018000A800A700A700A600A500A400A400A30043
:10019000A200A200A100A100A000A0009F009F005B
:1001A0009E009E009D009D009D009C009C009C0068
:1001B0009C009B009B009B009B009A009A009A0069
:1001C0009A009A0099009900990099009900990065
:1001D000980098009800980098009800980098005F
:1001E0009800980098009700970097009700970054
:1001F0009700970097009700140511241FBECFEFBA
:10020000D8E0DEBFCDBF11E0A0E0B1E0ECE9FAE05C
:1002100002C005900D92A231B107D9F721E0A2E109
:10022000B1E001C01D92AB3CB207E1F710E0CDEFA9
:10023000D0E004C02197FE010E944105CC3FD107C8
:10024000C9F70E9475030C944C050C940000CF92E2
:10025000DF92EF92FF920F931F93CF93DF936C0186
:100260007A018B01C0E0D0E0CE15DF0581F0D80126
:100270006D918D01D601ED91FC910190F081E02D01
:10028000C6010995892B11F02196EECF7E01C70199
:10029000DF91CF911F910F91FF90EF90DF90CF9062
:1002A0000895089580E090E00895FC01538D448DF9
:1002B000252F30E0842F90E0821B930B541710F011
:1002C000CF96089501970895FC01918D828D98171E
:1002D00061F0828DDF01A80FB11D5D968C91928D2A
:1002E0009F5F9F73928F90E008958FEF9FEF089527
:1002F000FC01918D828D981731F0828DE80FF11DF0
:10030000858D90E008958FEF9FEF0895FC01918D0A
:10031000228D892F90E0805C9F4F821B91098F7303
:10032000992708958AE191E00E94860121E0892BB6
:1003300009F420E0822F0895FC01848DDF01A80FCD
:10034000B11DA35ABF4F2C91848D90E001968F73FD
:100350009927848FA689B7892C93A089B1898C911C
:10036000837080648C93938D848D981306C002886B
:10037000F389E02D80818F7D80830895EF92FF9235
:100380000F931F93CF93DF93EC0181E0888F9B8DB8
:100390008C8D981305C0E889F989808185FD26C078
:1003A000F62E0B8D10E00F5F1F4F0F731127E02EFD
:1003B0008C8DE8120CC00FB607FCFACFE889F989DA
:1003C000808185FFF5CFCE010E949C01F1CF8B8DFE
:1003D000FE01E80FF11DE35AFF4FF0829FB7F8943A
:1003E0000B8FEA89FB89808180620AC09FB7F894ED
:1003F000EE89FF896083E889F98980818370806450
:1004000080839FBF81E090E0DF91CF911F910F919A
:10041000FF90EF900895CF93DF93EC01888D8823B0
:10042000C9F0EA89FB89808185FD05C0A889B98961
:100430008C9186FD0FC00FB607FCF5CF808185FF3C
:10044000F2CFA889B9898C9185FFEDCFCE010E94AA
:100450009C01E7CFDF91CF9108950F931F93CF9326
:10046000DF93CDB7DEB764970FB6F894DEBF0FBE4B
:10047000CDBF00E810E08AE191E00E948601892B5F
:1004800009F453C08AE191E00E9464018A3A91051F
:1004900021F4109319010093180120911801309153
:1004A000190120383105A9F4209116013091170166
:1004B000A9014F5F5F4F5093170140931601220F20
:1004C000331FE1E0F0E0EC0FFD1FE20FF31F91831B
:1004D00080838091160190911701069761F68B85B4
:1004E0009C858F3F910539F61092170110921601E5
:1004F00010921901109218014B815C812F8138856F
:100500008D819E81840F951F820F931F69857A8547
:100510008617970709F0AFCF509315014093140148
:100520003093130120931201A6CF80911201909174
:100530001301892B29F181E08093BF012898409114
:100540001201509113018091140190911501181618
:10055000190614F45D9801C05D9A20ED37E0429FC2
:10056000C001439F900D529F900D1124A0E0B0E078
:100570008093B9019093BA01A093BB01B093BC01E1
:1005800064960FB6F894DEBF0FBECDBFDF91CF915A
:100590001F910F9108950E94920181110C942D02D8
:1005A00008950E9447051F920F920FB60F921124D3
:1005B0002F933F938F939F93AF93BF938091C701E6
:1005C0009091C801A091C901B091CA013091C601B2
:1005D00023E0230F2D3720F40196A11DB11D05C086
:1005E00026E8230F0296A11DB11D2093C60180931A
:1005F000C7019093C801A093C901B093CA0180912B
:10060000C2019091C301A091C401B091C5010196AE
:10061000A11DB11D8093C2019093C301A093C40199
:10062000B093C501BF91AF919F918F913F912F9151
:100630000F900FBE0F901F9018951F920F920FB63C
:100640000F9211242F933F934F935F936F937F9358
:100650008F939F93AF93BF93EF93FF938AE191E0C2
:100660000E949C01FF91EF91BF91AF919F918F915B
:100670007F916F915F914F913F912F910F900FBE9E
:100680000F901F9018951F920F920FB60F92112482
:100690002F938F939F93EF93FF93E0912A01F09113
:1006A0002B018081E0913001F091310182FD12C077
:1006B0009081809133018F5F8F7320913401821775
:1006C00051F0E0913301F0E0E65EFE4F958F8093AC
:1006D000330101C08081FF91EF919F918F912F9104
:1006E0000F900FBE0F901F901895789484B582607C
:1006F00084BD84B5816084BD85B5826085BD85B5C6
:10070000816085BD80916E00816080936E00109243
:1007100081008091810082608093810080918100BE
:10072000816080938100809180008160809380004F
:100730008091B10084608093B1008091B0008160AD
:100740008093B00080917A00846080937A008091D9
:100750007A00826080937A0080917A008160809331
:100760007A0080917A00806880937A001092C100AC
:100770008FEF87B984B985B92D9A429A2C984398FE
:10078000289A5A985B9A5C98E0912A01F0912B0183
:1007900082E08083E0912601F091270181E080834F
:1007A000E0912801F091290180EA808310923201C2
:1007B000E0912E01F0912F0186E08083E0912C01E1
:1007C000F0912D01808180618083E0912C01F09176
:1007D0002D01808188608083E0912C01F0912D01B2
:1007E000808180688083E0912C01F0912D018081CF
:1007F0008F7D808328985D9A27EF33E0199B0DC089
:100800002D9842982C9A439A5E9AC9010197F1F764
:100810005E98C9010197F1F7F1CF289A2D9A429A73
:100820002C984398CBE4D0E035E0D32E43E0C42E9F
:1008300007EC10E056EFE52E51E0F52E62E0B62E03
:100840008091C0019091C1010197F0F79093C1018F
:100850008093C0018091BF018130F1F038F0823087
:1008600009F493C0833009F457C0DBC01092BE0175
:100870001092BD011092B9011092BA011092BB0101
:100880001092BC011093B8010093B701289A2D9AD9
:10089000429A2C984398C5C08091BD019091BE01A9
:1008A00001969093BE018093BD018091B901909112
:1008B000BA01A091BB01B091BC010197A109B10996
:1008C0008093B9019093BA01A093BB01B093BC018E
:1008D0002D9842982C9A439A5E9ACE010197F1F78F
:1008E0005E988091BD019091BE01FC01EE0FFF1F4B
:1008F000E859FF4F45915491D49E9001D59E300DFB
:1009000011243093C1012093C001873C910509F067
:1009100088C0C092BF0185C08091B9019091BA0191
:10092000A091BB01B091BC010197A109B1098093CD
:10093000B9019093BA01A093BB01B093BC012D986B
:1009400042982C9A439A5E9ACE010197F1F75E98ED
:10095000F70125913491D29EC001D39E900D1124B0
:100960009093C1018093C0018091B9019091BA0127
:10097000A091BB01B091BC01873C9105A105B105D7
:1009800009F04FC0B092BF014CC08091B701909167
:10099000B80101979093B8018093B7018091B90194
:1009A0009091BA01A091BB01B091BC010197A1093E
:1009B000B1098093B9019093BA01A093BB01B093A0
:1009C000BC012D9842982C9A439A5E9ACE010197C9
:1009D000F1F75E98E091B701F091B801EE0FFF1FBB
:1009E000E859FF4F25913491D29EC001D39E900DBE
:1009F00011249093C1018093C0018091BD01909119
:100A0000BE01892B61F08091B9019091BA01A0914A
:100A1000BB01B091BC01892B8A2B8B2B11F4109256
:100A2000BF010E94CB020CCFEAE1F1E013821282F7
:100A300088EE93E0A0E0B0E084839583A683B7833B
:100A400084E091E09183808385EC90E095878487B2
:100A500084EC90E09787868780EC90E0918B808B88
:100A600081EC90E0938B828B82EC90E0958B848B71
:100A700086EC90E0978B868B118E128E138E148EDF
:100A80000895EE0FFF1F0590F491E02D099481E089
:0C0A900090E0F8940C944C05F894FFCF13
:100A9C0000000000BE01270155010B028601640114
:020AAC007801CF
:00000001FF
