:100000000C9405080C942D080C942D080C942D08C4
:100010000C942D080C942D080C942D080C942D088C
:100020000C942D080C942D080C942D080C942D087C
:100030000C942D080C942D080C942D080C942D086C
:100040000C94D5090C942D080C94450A0C941F0AA5
:100050000C942D080C942D080C942D080C942D084C
:100060000C942D080C942D0818061806180618066E
:1000700018061606160616061606160613061306A4
:1000800013061306110611061106110611060E06B7
:100090000E060E060E060C060C060C060C060C06CA
:1000A0000A060A060A060A060706070607060706DC
:1000B00005060506050605060206020602060206F4
:1000C0000006000600060006FE05FE05FE05FE050C
:1000D000FB05FB05FB05FB05F905F905F905F90528
:1000E000F705F705F705F405F405F405F405F20541
:1000F000F205F205F205F005F005F005ED05ED0558
:10010000ED05ED05EB05EB05EB05E905E905E90571
:10011000E705E705E705E405E405E405E405E20590
:10012000E205E205E005E005E005DE05DE05DE05A9
:10013000DB05DB05DB05D905D905D905D705D705CD
:10014000D705D505D505D505D205D205D205D005EB
:10015000D005CE05CE05CE05CC05CC05CC05C90510
:10016000C905C905C705C705C505C505C505C30535
:10017000C305C305C105C105BF05BF05BF05BC0556
:10018000BC05BA05BA05BA05B805B805B605B60581
:10019000B605B405B405B205B205B005B005B005A5
:1001A000AD05AD05AB05AB05A905A905A705A705D7
:1001B000A705A505A505A305A305A105A1059F05FF
:1001C0009F059D059D059B059B059B05990599052B
:1001D0009705970595059505930593059105910557
:1001E0008E058E058C058C058A058A05880588058F
:1001F00086058405840582058205800580057E05C7
:100200007E057C057C057B057B05790577057705F3
:10021000750575057305730571056F056F056D052A
:100220006D056B0569056905670567056505630566
:1002300063056105610560055E055E055C055A059F
:100240005A055805580556055405540552055105DB
:1002500051054F054D054D054B0549054905470518
:100260004605460544054205400540053E053C055A
:100270003C053B053905370537053505340534059B
:10028000320530052E052E052D052B0529052905DE
:100290002705260524052205220520051F051D0525
:1002A0001B051B051905180516051405140513056E
:1002B00011050F050E050C050C050A0509050705B6
:1002C00005050405020502050005FF04FD04FC0404
:1002D000FA04F804F704F504F504F304F204F00456
:1002E000EF04ED04EB04EA04E804E704E504E404A5
:1002F000E204E004DF04DD04DC04DA04D904D704FA
:10030000D604D404D304D104D004CE04CD04CB0449
:10031000C904C804C604C504C404C204C104BF049B
:10032000BE04BC04BB04B804B604B504B304B204F0
:10033000B004AF04AE04AC04A904A804A604A50448
:10034000A404A2049F049E049D049B049A049804A0
:1003500096049404930492048F048E048C048B04FA
:100360008804870485048404810480047F047D0458
:100370007B047904780476047404730470046F04B5
:100380006E046B046A046904660465046404610411
:1003900060045D045C045B04580457045504530472
:1003A000510450044D044C044B04480447044504D4
:1003B0004404410440043E043D043A043804370434
:1003C00034043304310430042E042C042A04280499
:1003D00027042404220421041F041E041C041904FD
:1003E000180416041404130411040E040C040B0462
:1003F000090407040604040402040004FE03FC03C9
:10040000FA03F803F603F503F303F103EF03ED0337
:10041000EB03EA03E803E603E403E203E003DE039D
:10042000DC03DA03D803D603D503D303D203D00306
:10043000CE03CC03CA03C803C603C403C203C1036B
:10044000BE03BC03BA03B803B703B503B303B103D8
:10045000AF03AE03AB03A903A703A603A403A20340
:10046000A0039E039C039B039903960395039303A8
:1004700091038F038D038B03890387038603830313
:10048000820380037E037C037A037803770374037B
:10049000730370036F036D036B03690367036603E4
:1004A0006303620360035E035C035A03580356034D
:1004B0005503520351034F034D034B0349034703B5
:1004C00046034303410340033E033C033A0338031E
:1004D00036033403320330032F032D032B03290388
:1004E000270325032403220320031E031C031A03EE
:1004F000180317031503130311030F030D030B0355
:100500000A0308030603040302030103FF02FD02BA
:10051000FB02F902F702F602F402F202F002EE0226
:10052000ED02EB02E902E702E502E402E102E00289
:10053000DE02DC02DA02D902D702D502D302D202ED
:10054000D002CE02CC02CA02C902C702C502C3024F
:10055000C202C002BE02BC02BB02B902B702B502AF
:10056000B402B202B002AE02AC02AB02A902A70210
:10057000A602A402A202A0029F029D029C029A026D
:100580009802960295029302910290028E028C02CA
:100590008B028902870286028402820281027F0224
:1005A0007D027C027A02780277027502730272027F
:1005B00070026F026D026B026A02680266026502D7
:1005C0006302610260025E025D025B025A0258022F
:1005D000560255025302520250024F024D024C0283
:1005E0004A024802470245024402420241023F02D7
:1005F0003E023C023A023902380236023402330229
:10060000310230022E022D022C022A022802270279
:10061000250224022302210220021E021D021B02C7
:100620001A02180217021602140213021102100213
:100630000F020D020C020A0209020702060205025D
:10064000030202020102FF01FE01FC01FB01FA01AB
:10065000F801F701F601F401F301F201F001EF01F5
:10066000EE01EC01EB01EA01E801E701E601E4013A
:10067000E301E201E101DF01DE01DD01DB01DA017D
:10068000D901D701D601D501D401D201D101D001C0
:10069000CF01CD01CC01CB01CA01C901C701C601FF
:1006A000C501C401C201C101C001BF01BE01BC013D
:1006B000BB01BA01B901B801B701B501B401B30179
:1006C000B201B101B001AE01AD01AC01AB01AA01B3
:1006D000A901A801A701A601A401A301A201A101EA
:1006E000A0019F019E019D019C019B019A0198011F
:1006F0009701960195019401930192019101900156
:100700008F018E018D018C018B018A018901880185
:1007100087018601850184018301820181018001B5
:100720007F017E017D017C017B017A0179017801E5
:100730007701760175017401730172017101700115
:100740006F016E016D016D016C016B016A01690140
:10075000680167016601650164016301630162016B
:10076000610160015F015E015D015D015C015B0192
:100770005A015901580157015701560155015401B9
:10078000530152015201510150014F014E014E01DE
:100790004D014C014B014A01490149014801470102
:1007A0004601460145014401430142014201410124
:1007B00040013F013F013E013D013C013C013B0145
:1007C0003A013A0139013801370137013601350163
:1007D0003501340133013201320131013001300180
:1007E0002F012E012E012D012C012B012B012A019D
:1007F0002A012901280128012701260126012501B6
:1008000024012401230122012201210120012001D0
:100810001F011F011E011D011D011C011C011B01E7
:100820001A011A01190119011801170117011601FE
:100830001601150114011401130113011201120113
:100840001101100110010F010F010E010E010D0128
:100850000D010C010B010B010A010A01090109013B
:10086000080108010701070106010601050105014C
:10087000040104010301030102010201010101015C
:1008800000010001FF00FF00FE00FE00FD00FD0072
:10089000FC00FC00FB00FB00FA00FA00F900F90084
:1008A000F800F800F700F700F700F600F600F50092
:1008B000F500F400F400F300F300F300F200F2009E
:1008C000F100F100F000F000F000EF00EF00EE00AA
:1008D000EE00EE00ED00ED00EC00EC00EB00EB00B4
:1008E000EB00EA00EA00E900E900E900E800E800BE
:1008F000E800E700E700E600E600E600E500E500C6
:10090000E500E400E400E300E300E300E200E200CD
:10091000E200E100E100E100E000E000DF00DF00D4
:10092000DF00DE00DE00DE00DD00DD00DD00DC00DB
:10093000DC00DC00DB00DB00DB00DA00DA00DA00E0
:10094000D900D900D900D800D800D800D800D700E5
:10095000D700D700D600D600D600D500D500D500E8
:10096000D400D400D400D400D300D300D300D200EC
:10097000D200D200D200D100D100D100D000D000EE
:10098000D000D000CF00CF00CF00CE00CE00CE00F0
:10099000CE00CD00CD00CD00CD00CC00CC00CC00F1
:1009A000CC00CB00CB00CB00CB00CA00CA00CA00F1
:1009B000C900C900C900C900C900C800C800C800F2
:1009C000C800C700C700C700C700C600C600C600F1
:1009D000C600C500C500C500C500C500C400C400F0
:1009E000C400C400C300C300C300C300C300C200EE
:1009F000C200C200C200C100C100C100C100C100EC
:100A0000C000C000C000C000C000BF00BF00BF00E9
:100A1000BF00BF00BE00BE00BE00BE00BE00BD00E5
:100A2000BD00BD00BD00BD00BD00BC00BC00BC00E1
:100A3000BC00BC00BB00BB00BB00BB00BB00BA00DD
:100A4000BA00BA00BA00BA00BA00B900B900B900D9
:100A5000B900B900B900B800B800B800B800B800D3
:100A6000B800B700B700B700B700B700B700B600CE
:100A7000B600B600B600B600B600B500B500B500C9
:100A8000B500B500B500B500B400B400B400B400C2
:100A9000B400B400B400B300B300B300B300B300BB
:100AA000B300B300B200B200B200B200B200B200B4
:100AB000B200B100B100B100B100B100B100B100AD
:100AC000B100B000B000B000B000B000B000B000A5
:100AD000B000AF00AF00AF00AF00AF00AF00AF009D
:100AE000AF00AE00AE00AE00AE00AE00AE00AE0095
:100AF000AE00AD00AD00AD00AD00AD00AD00AD008D
:100B0000AD00AD00AC00AC00AC00AC00AC00AC0083
:100B1000AC00AC00AC00AB00AB00AB00AB00AB007A
:100B2000AB00AB00AB00AB00AB00AA00AA00AA0070
:100B3000AA00AA00AA00AA00AA00AA00AA00A90066
:100B4000A900A900A900A900A900A900A900A9005D
:100B5000A900A900A800A800A800A800A800A80053
:100B6000A800A800A800A800A800A700A700A70048
:100B7000A700A700A700A700A700A700A700A7003D
:100B8000A700A600A600A600A600A600A600A60034
:100B9000A600A600A600A600A600A600A500A50027
:100BA000A500A500A500A500A500A500A500A5001D
:100BB000A500A500A500A400A400A400A400A40012
:100BC000A400A400A400A400A400A400A400A40005
:100BD000A400A300A300A300A300A300A300A300FC
:100BE000A300A300A300A300A300A300A300A300ED
:100BF000A300A200A200A200A200A200A200A200E4
:100C0000A200A200A200A200A200A200A200A200D4
:100C1000A200A100A100A100A100A100A100A100CB
:100C2000A100A100A100A100A100A100A100A100BC
:100C3000A100A100A100A100A000A000A000A000B0
:100C4000A000A000A000A000A000A000A000A000A4
:100C5000A000A000A000A000A000A000A000A00094
:100C60009F009F009F009F009F009F009F009F008C
:100C70009F009F009F009F009F009F009F009F007C
:100C80009F009F009F009F009F009F009F009E006D
:100C90009E009E009E009E009E009E009E009E0064
:100CA0009E009E009E009E009E009E009E009E0054
:100CB0009E009E009E009E009E009E009E009E0044
:100CC0009D009D009D009D009D009D009D009D003C
:100CD0009D009D009D009D009D009D009D009D002C
:100CE0009D009D009D009D009D009D009D009D001C
:100CF0009D009D009D009D009C009C009C009C0010
:100D00009C009C009C009C009C009C009C009C0003
:100D10009C009C009C009C009C009C009C009C00F3
:100D20009C009C009C009C009C009C009C009C00E3
:100D30009C009C009C009C009C009B009B009B00D6
:100D40009B009B009B009B009B009B009B009B00CB
:100D50009B009B009B009B009B009B009B009B00BB
:100D60009B009B009B009B009B009B009B009B00AB
:100D70009B009B009B009B009B009B009B009B009B
:100D80009B009B009B009B009B009B009A009A008D
:100D90009A009A009A009A009A009A009A009A0083
:100DA0009A009A009A009A009A009A009A009A0073
:100DB0009A009A009A009A009A009A009A009A0063
:100DC0009A009A009A009A009A009A009A009A0053
:100DD0009A009A009A009A009A009A009A009A0043
:100DE0009A009A009A009A009A009A009A009A0033
:100DF000990099009900990099009900990099002B
:100E0000990099009900990099009900990099001A
:100E1000990099009900990099009900990099000A
:100E200099009900990099009900990099009900FA
:100E300099009900990099009900990099009900EA
:100E400099009900990099009900990099009900DA
:100E500099009900990099009900990099009900CA
:100E600099009900990099009900990099009900BA
:100E700099009900990099009800980098009800AE
:100E800098009800980098009800980098009800A2
:100E90009800980098009800980098009800980092
:100EA0009800980098009800980098009800980082
:100EB0009800980098009800980098009800980072
:100EC0009800980098009800980098009800980062
:100ED0009800980098009800980098009800980052
:100EE0009800980098009800980098009800980042
:100EF0009800980098009800980098009800980032
:100F00009800980098009800980098009800980021
:100F10009800980098009800980098009800980011
:100F20009800980098009800980098009800980001
:100F300098009800980098009800980098009800F1
:100F400098009700970097009700970097009700E8
:100F500097009700970097009700970097009700D9
:100F600097009700970097009700970097009700C9
:100F700097009700970097009700970097009700B9
:100F800097009700970097009700970097009700A9
:100F90009700970097009700970097009700970099
:100FA0009700970097009700970097009700970089
:100FB0009700970097009700970097009700970079
:100FC0009700970097009700970097009700970069
:100FD0009700970097009700970097009700970059
:100FE0009700970097009700970097009700970049
:100FF0009700970097009700970097009700970039
:101000009700970097009700EE0B11241FBECFEFBB
:10101000D8E0DEBFCDBF11E0A0E0B1E0E0E5F8E14F
:1010200002C005900D92A231B107D9F721E0A2E1EB
:10103000B1E001C01D92AB3CB207E1F718E0C5E09A
:10104000D8E004C02197FE010E941B0CC430D107D8
:10105000C9F70E94770A0C94260C0C940000CF92DA
:10106000DF92EF92FF920F931F93CF93DF936C0168
:101070007A018B01C0E0D0E0CE15DF0581F0D80108
:101080006D918D01D601ED91FC910190F081E02DE3
:10109000C6010995892B11F02196EECF7E01C7017B
:1010A000DF91CF911F910F91FF90EF90DF90CF9044
:1010B0000895089580E090E00895FC01538D448DDB
:1010C000252F30E0842F90E0821B930B541710F0F3
:1010D000CF96089501970895FC01918D828D981700
:1010E00061F0828DDF01A80FB11D5D968C91928D0C
:1010F0009F5F9F73928F90E008958FEF9FEF089509
:10110000FC01918D828D981731F0828DE80FF11DD1
:10111000858D90E008958FEF9FEF0895FC01918DEC
:10112000228D892F90E0805C9F4F821B91098F73E5
:10113000992708958AE191E00E948E0821E0892B89
:1011400009F420E0822F0895FC01848DDF01A80FAF
:10115000B11DA35ABF4F2C91848D90E001968F73DF
:101160009927848FA689B7892C93A089B1898C91FE
:10117000837080648C93938D848D981306C002884D
:10118000F389E02D80818F7D80830895EF92FF9217
:101190000F931F93CF93DF93EC0181E0888F9B8D9A
:1011A0008C8D981305C0E889F989808185FD26C05A
:1011B000F62E0B8D10E00F5F1F4F0F731127E02EDF
:1011C0008C8DE8120CC00FB607FCFACFE889F989BC
:1011D000808185FFF5CFCE010E94A408F1CF8B8DD1
:1011E000FE01E80FF11DE35AFF4FF0829FB7F8941C
:1011F0000B8FEA89FB89808180620AC09FB7F894CF
:10120000EE89FF896083E889F98980818370806431
:1012100080839FBF81E090E0DF91CF911F910F917C
:10122000FF90EF900895CF93DF93EC01888D882392
:10123000C9F0EA89FB89808185FD05C0A889B98943
:101240008C9186FD0FC00FB607FCF5CF808185FF1E
:10125000F2CFA889B9898C9185FFEDCFCE010E948C
:10126000A408E7CFDF91CF9108950F931F93CF93F9
:10127000DF93CDB7DEB764970FB6F894DEBF0FBE2D
:10128000CDBF00E810E08AE191E00E948E08892B32
:1012900009F453C08AE191E00E946C088A3A9105F2
:1012A00021F4109319010093180120911801309135
:1012B000190120383105A9F4209116013091170148
:1012C000A9014F5F5F4F5093170140931601220F02
:1012D000331FE1E0F0E0EC0FFD1FE20FF31F9183FD
:1012E00080838091160190911701069761F68B8596
:1012F0009C858F3F910539F61092170110921601C7
:1013000010921901109218014B815C812F81388550
:101310008D819E81840F951F820F931F69857A8529
:101320008617970709F0AFCF50931501409314012A
:101330003093130120931201A6CF81E08093BF0167
:1013400028984091120150911301809114019091BD
:1013500015011816190614F45D9801C05D9A20ED68
:1013600037E0429FC001439F900D529F900D112482
:10137000A0E0B0E08093B9019093BA01A093BB01C3
:10138000B093BC0164960FB6F894DEBF0FBECDBF1C
:10139000DF91CF911F910F9108950E949A088111BA
:1013A0000C94350908950E94210C1F920F920FB6DC
:1013B0000F9211242F933F938F939F93AF93BF93DB
:1013C0008091C7019091C801A091C901B091CA0153
:1013D0003091C60123E0230F2D3720F40196A11D83
:1013E000B11D05C026E8230F0296A11DB11D209353
:1013F000C6018093C7019093C801A093C901B0931F
:10140000CA018091C2019091C301A091C401B09121
:10141000C5010196A11DB11D8093C2019093C30126
:10142000A093C401B093C501BF91AF919F918F91DB
:101430003F912F910F900FBE0F901F9018951F9204
:101440000F920FB60F9211242F933F934F935F93F8
:101450006F937F938F939F93AF93BF93EF93FF937C
:101460008AE191E00E94A408FF91EF91BF91AF91B2
:101470009F918F917F916F915F914F913F912F91AC
:101480000F900FBE0F901F9018951F920F920FB6DE
:101490000F9211242F938F939F93EF93FF93E091DB
:1014A0002A01F0912B018081E0913001F09131010E
:1014B00082FD12C09081809133018F5F8F732091E4
:1014C0003401821751F0E0913301F0E0E65EFE4F07
:1014D000958F8093330101C08081FF91EF919F919F
:1014E0008F912F910F900FBE0F901F9018957894A9
:1014F00084B5826084BD84B5816084BD85B5826019
:1015000085BD85B5816085BD80916E0081608093C9
:101510006E00109281008091810082608093810032
:101520008091810081608093810080918000816042
:10153000809380008091B10084608093B10080919D
:10154000B00081608093B00080917A0084608093C5
:101550007A0080917A00826080937A0080917A008C
:10156000816080937A0080917A00806880937A000D
:101570001092C1008FEF87B984B985B92D9A429A2C
:101580002C984398289A5A985B9A5C98E0912A0183
:10159000F0912B0182E08083E0912601F0912701F8
:1015A00081E08083E0912801F091290180EA808325
:1015B00010923201E0912E01F0912F0186E080839C
:1015C000E0912C01F0912D01808180618083E09178
:1015D0002C01F0912D01808188608083E0912C01A5
:1015E000F0912D01808180688083E0912C01F09141
:1015F0002D0180818F7D8083CBE4D0E035E0D32E38
:1016000043E0C42E0FEC17E056E0E52E50E1F52E36
:1016100062E0B62E8091C0019091C1010197F0F770
:101620009093C1018093C0018091BF018130D1F0BE
:1016300038F0823009F487C0833009F44FC0CBC042
:101640001092BE011092BD011092B9011092BA0120
:101650001092BB011092BC011093B8010093B70126
:10166000289AB9C08091BD019091BE0101969093D6
:10167000BE018093BD018091B9019091BA01A09102
:10168000BB01B091BC010197A109B1098093B901D7
:101690009093BA01A093BB01B093BC015E9ACE01B6
:1016A0000197F1F75E988091BD019091BE01FC0118
:1016B000EE0FFF1FE859FF4F45915491D49E9001C2
:1016C000D59E300D11243093C1012093C0018F3C71
:1016D000974009F080C0C092BF017DC08091B901E0
:1016E0009091BA01A091BB01B091BC010197A109F1
:1016F000B1098093B9019093BA01A093BB01B09353
:10170000BC015E9ACE010197F1F75E98F701259131
:101710003491D29EC001D39E900D11249093C101AB
:101720008093C0018091B9019091BA01A091BB0151
:10173000B091BC018F3C9740A105B10509F04BC0A9
:10174000B092BF0148C08091B7019091B801019754
:101750009093B8018093B7018091B9019091BA013B
:10176000A091BB01B091BC010197A109B10980937F
:10177000B9019093BA01A093BB01B093BC015E9AEA
:10178000CE010197F1F75E98E091B701F091B801B1
:10179000EE0FFF1FE859FF4F25913491D29EC001F3
:1017A000D39E900D11249093C1018093C00180912C
:1017B000BD019091BE01892B61F08091B90190919A
:1017C000BA01A091BB01B091BC01892B8A2B8B2B54
:1017D00011F41092BF010E94CD091CCFEAE1F1E0A3
:1017E0001382128288EE93E0A0E0B0E084839583B8
:1017F000A683B78384E091E09183808385EC90E0B9
:101800009587848784EC90E09787868780EC90E0CA
:10181000918B808B81EC90E0938B828B82EC90E0BB
:10182000958B848B86EC90E0978B868B118E128E35
:10183000138E148E0895EE0FFF1F0590F491E02D86
:10184000099481E090E0F8940C94260CF894FFCF72
:1018500000000000C6082F085D0813098E086C08F8
:021860008008FE
:107E0000112484B714BE81FFF0D085E080938100F7
:107E100082E08093C00088E18093C10086E0809377
:107E2000C20080E18093C4008EE0C9D0259A86E02C
:107E300020E33CEF91E0309385002093840096BBD3
:107E4000B09BFECF1D9AA8958150A9F7CC24DD24C4
:107E500088248394B5E0AB2EA1E19A2EF3E0BF2EE7
:107E6000A2D0813461F49FD0082FAFD0023811F036
:107E7000013811F484E001C083E08DD089C08234E0
:107E800011F484E103C0853419F485E0A6D080C0E4
:107E9000853579F488D0E82EFF2485D0082F10E0AE
:107EA000102F00270E291F29000F111F8ED06801E7
:107EB0006FC0863521F484E090D080E0DECF843638
:107EC00009F040C070D06FD0082F6DD080E0C81688
:107ED00080E7D80618F4F601B7BEE895C0E0D1E017
:107EE00062D089930C17E1F7F0E0CF16F0E7DF06D8
:107EF00018F0F601B7BEE89568D007B600FCFDCFD4
:107F0000A601A0E0B1E02C9130E011968C91119780
:107F100090E0982F8827822B932B1296FA010C0160
:107F200087BEE89511244E5F5F4FF1E0A038BF0790
:107F300051F7F601A7BEE89507B600FCFDCF97BE46
:107F4000E89526C08437B1F42ED02DD0F82E2BD052
:107F50003CD0F601EF2C8F010F5F1F4F84911BD097
:107F6000EA94F801C1F70894C11CD11CFA94CF0C13
:107F7000D11C0EC0853739F428D08EE10CD085E9AC
:107F80000AD08FE07ACF813511F488E018D01DD067
:107F900080E101D065CF982F8091C00085FFFCCF94
:107FA0009093C60008958091C00087FFFCCF809118
:107FB000C00084FD01C0A8958091C6000895E0E648
:107FC000F0E098E1908380830895EDDF803219F02E
:107FD00088E0F5DFFFCF84E1DECF1F93182FE3DFCA
:107FE0001150E9F7F2DF1F91089580E0E8DFEE27F6
:047FF000FF270994CA
:027FFE00040479
:0400000300007E007B
:00000001FF
